S01800004279676765726E4752315F4E6F6465322E737265635D
S1130000C2C00000E0C00000DEC00000DCC0000090
S1130010DAC000008EC10000D6C00000D4C00000C9
S1130020D2C00000D0C00000CEC00000CCC0000090
S1130030CAC00000C8C00000C6C00000C4C00000A0
S1130040C2C00000C0C00000BEC00000BCC00000B0
S1130050BAC00000B8C00000B6C00000B4C00000C0
S1130060B2C00000B0C00000AEC00000ACC00000D0
S1130070AAC00000A8C00000A6C00000A4C00000E0
S1130080A2C00000A0C000009EC000009CC00000F0
S11300909AC0000098C0000096C0000051C3000040
S11300A092C0000090C000008EC000008CC0000010
S11300B08AC0000088C0000086C0000084C0000020
S11300C082C0000080C000007EC000007CC0000030
S11300D07AC0000078C0000076C0000074C0000040
S11300E072C00000BB030D040D040D040D040D04C7
S11300F00D040D04BB030D040D040D040D040D04C7
S11301000D040D04BD030D040D040D040D040D04B4
S11301100D040D040D040D040D040D040D040D0453
S11301200D040D04BD030D040D040D040D040D0494
S11301300D040D040D040D040D040D040D040D0433
S11301400D040D0409040D040D040D040D040D0427
S11301500D040D04E6030D040D040D040D040D043B
S11301600D040D040D040D040D040D040D040D0403
S11301700D040D04DA030D040D040D040D040D0427
S11301800D040D04F80311241FBECFEFD1E2DEBF2E
S1130190CDBF00E00CBF12E0A0E0B2E0E8E4F6E17D
S11301A000E00BBF02C007900D92AE3EB107D9F735
S11301B022E0AEEEB2E001C01D92AF3FB207E1F71C
S11301C00BD10C94220B1CCFEAE7F0E08081816014
S11301D08083808182608083808184608083ACE7B7
S11301E0B0E08C9180648C938081806880830895D2
S11301F0EAE7F0E0808180648083808184FD06C02A
S11302008091780090917900937008950895CF9328
S1130210DF931F92CDB7DEB769D18EE03BD18983DE
S113022044E060E080E643D14FEF61E08BE23FD1F0
S113023040E060EE8FE03BD18EE02CD18983898150
S1130240807E803441F0803851F081110BC087E00A
S113025092E0EFD507C08FE192E0EBD503C089E3CC
S113026092E0E7D50F90DF91CF9108959F92AF92DE
S1130270BF92CF92DF92EF92FF920F931F93CF938F
S1130280DF93CDB7DEB72C970FB6F894DEBF0FBE61
S1130290CDBF7C018CE2FED08C878EE0FBD08C70CD
S11302A019F181E6F7D0C82E82E6F4D0D12CDC2CEB
S11302B0CC24C82A85E6EED08F70982EC1F08E012A
S11302C00C5F1F4F0F2EF6E6AF2EF02DA80E0F2E4B
S11302D0F6E6BF2EF02D8B2DDDD0F80181938F0132
S11302E0B394BA10F8CF03C081E592E0A2D540E000
S11302F061E08CE2DCD0DA82C9829B828BE0FE0171
S11303003196D70101900D928A95E1F7C7012C9699
S11303100FB6F894DEBF0FBECDBFDF91CF911F9112
S11303200F91FF90EF90DF90CF90BF90AF909F9090
S113033008951F920F920FB60F9211240BB60F92CD
S11303402F933F934F935F936F937F938F939F93D9
S1130350AF93BF93EF93FF93CF93DF93CDB7DEB704
S11303602B97DEBFCDBF80E692E09F938F9350D54D
S1130370CE0101967BDF9D818C811F929F931F92FA
S11303808F9387E792E09F938F9342D58C8180D29D
S113039062D18D8194D227D10FB6F894DEBF0FBEFF
S11303A0CDBF2B960FB6F894DEBF0FBECDBFDF9145
S11303B0CF91FF91EF91BF91AF919F918F917F91D9
S11303C06F915F914F913F912F910F900BBE0F90C2
S11303D00FBE0F901F901895CF93DF93CDB7DEB764
S11303E066970FB6F894DEBF0FBECDBF87E690E0E8
S11303F03AD248D20CDF11D1E7DE8FD047D1EAE6FA
S1130400F0E0808182608083EC9A789486E892E0C0
S11304109F938F93FDD4FE0131968BE0DF011D92F3
S11304208A95E9F781E08B838AE18C838BE0DE0196
S11304301C9601900D928A95E1F787EA91E601975F
S1130440F1F700C0000080E0A7D080E0B6D027D14B
S11304500F900F900F2EF4E9EF2EF2E0FF2EF02D07
S113046003EA12E0C5DE9F938F93FF92EF92D0D4FC
S11304706DD09F938F931F930F93CAD4A7EAB1E6CD
S11304801197F1F700C000000FB6F894DEBF0FBE5D
S1130490CDBFE8CFCF93C82F2F9883E01AD18C2FEC
S11304A018D180E016D12F9A19D1CF9108951F93B6
S11304B0CF93DF93182FD62FC42F2F9885E009D11F
S11304C0812F07D18D2F05D18C2F03D12F9ADF9146
S11304D0CF911F9108952F9880ECFBD083EC99E085
S11304E00197F1F700C000002F9A0895279A2F9AD8
S11304F0DFD0F1CF0895E2E0F1E080818F7B80834B
S113050089E698E10197F1F700C0000080818064DA
S1130510808387EB92E08DC40895E2D0E1E0F1E0BE
S11305208081826080838081886080838081806113
S11305308083808180628083808180648083E2E024
S1130540F1E0808180618083D6CF0895E2E0F1E01C
S113055080818F7D80838081877F808387E893E19A
S11305600197F1F700C000008091060190E0982FF8
S11305708827208128602083E7E8F3E13197F1F7A9
S113058000C0000020910601E2E0F1E03081306219
S11305903083820F911D0895882319F0813039F03A
S11305A00895E2E0F1E080818D7F80830895E2E0A8
S11305B0F1E08081826080830895CF93DF9300D03F
S11305C0CDB7DEB79EE599831A828B8393D08111D0
S11305D0FDCF63E0CE01019691D00F900F900F9064
S11305E0DF91CF910895CF93DF93EC01C63F8FEF56
S11305F0D80734F481E0D0DF8C2F8195DEDF0AC088
S1130600CB30D1052CF080E0C7DF8C2FD6DF02C0C1
S113061080E0D3DFDF91CF910895259AE1E8F0E0FF
S1130620808182608083A0E8B0E08C9180688C93A4
S11306308C9182608C938081886180838FE39CE9B4
S1130640909387008093860088EB9BE090938900C9
S1130650809388000895803D27E0920738F480ED68
S113066097E0909389008093880008958D332FE05C
S1130670920738F08CE39FE0909389008093880080
S1130680089590938900809388000895819A8FED4E
S113069092E09F938F93BCD30F900F900895899A03
S11306A089EF90E00197F1F700C000008998089560
S11306B084B1866084B984B1816884B9289A8CB580
S11306C080618CBD8CB581608CBD8CB580648CBD23
S11306D008958EBD0DB407FEFDCF08958EB508951F
S11306E08CE08093B8008FEF8093BB0084E080930C
S11306F0BC0008958091BC0081700895ECEBF0E09B
S1130700208120FDFDCF6093F002FC012081209325
S1130710F10220FD0CC0623050F0DC011196E2EFD2
S1130720F2E081E09D9191938F5F8613FBCF10924D
S1130730EF0288EF8093060285EA8093BC00089557
S11307401F920F920FB60F9211240BB60F922F9394
S11307503F938F939F93AF93BF93EF93FF938091B6
S1130760B90090E0FC013897E135F10508F055C077
S1130770EE58FF4FFDC21092EE02E091EE0280911E
S1130780F002E81770F481E08E0F8093EE02F0E03F
S1130790EF50FD4F80818093BB0085E88093BC00BF
S11307A043C08091EF0281608093EF0284E98093DB
S11307B0BC003AC0E091EE0281E08E0F8093EE021D
S11307C08091BB00F0E0EF50FD4F80832091EE025A
S11307D030E08091F00290E001972817390724F463
S11307E085EC8093BC0020C085E88093BC001CC0CD
S11307F08091BB00E091EE02F0E0EF50FD4F80836A
S11308008091EF0281608093EF0284E98093BC00C1
S11308100BC085EA8093BC0007C08091B900809327
S1130820060284E08093BC00FF91EF91BF91AF91E9
S11308309F918F913F912F910F900BBE0F900FBE00
S11308400F901F901895E0ECF0E080818823ECF77E
S11308508091C6000895E0ECF0E0908195FFFDCF13
S11308608093C60008959093C5008093C400E1EC82
S1130870F0E0808188618083E2ECF0E08081866032
S11308808083089563E274E08BE294E077C2089574
S1130890682F70E080E090E052D120E030E04FE734
S11308A053E4B4D020E030E84DEE54E4FED120E02F
S11308B030E04AEF54E442D016D1CB010895CF92F0
S11308C0DF92EF92FF92682F70E080E090E037D1E2
S11308D09B01AC0133D020E030E04FE753E42DD04E
S11308E06B017C0120E030E04FE753EC8BD0882390
S11308F054F020E030E04FE753E4C701B601D1D112
S1130900181654F011C00F2EC12CD12CFFE7EF2E76
S1130910F3ECFF2EF02D08C00F2EC12CD12CFFE7D5
S1130920EF2EF3E4FF2EF02DC701B601D7D0CB0193
S1130930FF90EF90DF90CF9008955058BB27AA27DF
S11309400ED075C166D130F06BD120F031F49F3FE9
S113095011F41EF45BC10EF4E095E7FB51C1E92FDD
S113096077D180F3BA17620773078407950718F0E5
S113097071F49EF58FC10EF4E0950B2EBA2FA02DC5
S11309800B01B90190010C01CA01A0011124FF2738
S1130990591B99F0593F50F4503E68F11A16F04033
S11309A0A22F232F342F4427585FF3CF4695379532
S11309B02795A795F0405395C9F77EF41F16BA0BF7
S11309C0620B730B840BBAF09150A1F0FF0FBB1FA5
S11309D0661F771F881FC2F70EC0BA0F621F731FEE
S11309E0841F48F4879577956795B795F7959E3F4B
S11309F008F0B3CF9395880F08F09927EE0F9795D9
S1130A0087950895D9D008F481E008950CD00FC1DA
S1130A1007D140F0FED030F021F45F3F19F0F0C070
S1130A20511139C1F3C014D198F39923C9F3552353
S1130A30B1F3951B550BBB27AA27621773078407CD
S1130A4038F09F5F5F4F220F331F441FAA1FA9F383
S1130A5033D00E2E3AF0E0E830D091505040E69575
S1130A60001CCAF729D0FE2F27D0660F771F881FD6
S1130A70BB1F261737074807AB07B0E809F0BB0BC5
S1130A80802DBF01FF2793585F4F2AF09E3F5105E9
S1130A9068F0B6C000C15F3FECF3983EDCF3869586
S1130AA077956795B795F7959F5FC9F7880F911D5F
S1130AB09695879597F90895E1E0660F771F881F4B
S1130AC0BB1F621773078407BA0720F0621B730BFE
S1130AD0840BBA0BEE1F88F7E095089504D0689450
S1130AE0B111D9C00895BCD088F09F5790F0B92FA8
S1130AF09927B751A0F0D1F0660F771F881F991F6F
S1130B001AF0BA95C9F712C0B13081F0C3D0B1E080
S1130B100895C0C0672F782F8827B85F39F0B93F90
S1130B20CCF3869577956795B395D9F73EF4909570
S1130B308095709561957F4F8F4F9F4F0895E894EE
S1130B4009C097FB3EF490958095709561957F4F11
S1130B508F4F9F4F9923A9F0F92F96E9BB279395BF
S1130B60F695879577956795B795F111F8CFFAF4CF
S1130B70BB0F11F460FF1BC06F5F7F4F8F4F9F4F00
S1130B8016C0882311F096E911C0772321F09EE85E
S1130B90872F762F05C0662371F096E8862F70E0C4
S1130BA060E02AF09A95660F771F881FDAF7880F9E
S1130BB09695879597F90895990F0008550FAA0BF4
S1130BC0E0E8FEEF16161706E807F907C0F012165C
S1130BD01306E407F50798F0621B730B840B950B5F
S1130BE039F40A2661F0232B242B252B21F40895B4
S1130BF00A2609F4A140A6958FEF811D811D089551
S1130C0097F99F6780E870E060E008959FEF80ECBB
S1130C10089500240A94161617061806090608955E
S1130C2000240A9412161306140605060895092EC4
S1130C300394000C11F4882352F0BB0F40F4BF2B33
S1130C4011F460FF04C06F5F7F4F8F4F9F4F089573
S1130C5057FD9058440F551F59F05F3F71F0479569
S1130C60880F97FB991F61F09F3F79F0879508954E
S1130C70121613061406551FF2CF4695F1DF08C06D
S1130C80161617061806991FF1CF8695710561058A
S1130C9008940895E894BB2766277727CB0197F932
S1130CA008958ADF08F48FEF08950BD0C0CFB1DF29
S1130CB028F0B6DF18F0952309F0A2CFA7CF1124AE
S1130CC0EACFC6DFA0F3959FD1F3950F50E0551FEF
S1130CD0629FF001729FBB27F00DB11D639FAA278D
S1130CE0F00DB11DAA1F649F6627B00DA11D661FDC
S1130CF0829F2227B00DA11D621F739FB00DA11DFD
S1130D00621F839FA00D611D221F749F3327A00DB6
S1130D10611D231F849F600D211D822F762F6A2F52
S1130D2011249F5750408AF0E1F088234AF0EE0FD7
S1130D30FF1FBB1F661F771F881F91505040A9F7E4
S1130D409E3F510570F05CCFA6CF5F3FECF3983E19
S1130D50DCF3869577956795B795F795E7959F5F4B
S1130D60C1F7FE2B880F911D9695879597F90895E5
S1130D70EE0FFF1F0590F491E02D19940F931F932C
S1130D80CF93DF93EC018B01009731F4611571056A
S1130D9019F480E090E037C06EE070E081E090E00C
S1130DA063D2FC010097A9F380E883830115110540
S1130DB071F01387028781E883838091F502909113
S1130DC0F602892B21F4F093F602E093F5022097C2
S1130DD0C9F0D187C0878381826083838091F702C1
S1130DE09091F802892B71F4F093F802E093F702E2
S1130DF08091F9029091FA02892B21F4F093FA027E
S1130E00E093F902CF01DF91CF911F910F910895E3
S1130E10CF93DF93CDB7DEB7FE0136966191719122
S1130E20AF018091F7029091F80230D0DF91CF9119
S1130E3008950F931F93CF93DF93E091F702F091FE
S1130E40F802238121FF1BC0EC0100E010E089912E
S1130E506091F7027091F802DB011896ED91FC9114
S1130E601997882331F01995892B89F30FEF1FEF18
S1130E70EECF8AE01995892B11F4C80102C08FEFD7
S1130E809FEFDF91CF911F910F9108952F923F9281
S1130E904F925F926F927F928F929F92AF92BF9286
S1130EA0CF92DF92EF92FF920F931F93CF93DF9332
S1130EB0CDB7DEB72C970FB6F894DEBF0FBECDBF0B
S1130EC07C016B018A01FC0117821682838181FFF8
S1130ED0B0C1CE0101964C01F7019381F60193FD57
S1130EE0859193FF81916F01882309F49EC1853216
S1130EF039F493FD859193FF81916F01853221F43B
S1130F00B70190E00FD3E8CF512C312C20E02032F0
S1130F10A0F48B3269F030F4803259F0833269F4F2
S1130F2020612CC08D3239F0803339F4216026C021
S1130F302260246023C0286021C027FD27C030ED33
S1130F40380F3A3078F426FF06C0FAE05F9E300D81
S1130F501124532E13C08AE0389E300D1124332EF1
S1130F6020620CC08E3221F426FD5FC1206406C0CD
S1130F708C3611F4206802C0883641F4F60193FDE2
S1130F80859193FF81916F018111C1CF982F9F7D2E
S1130F909554933028F40C5F1F4FFFE3F9830DC081
S1130FA0833631F0833771F0833509F057C021C09F
S1130FB0F801808189830E5F1F4F44244394512C90
S1130FC0540114C03801F2E06F0E711CF801A080C6
S1130FD0B18026FF03C0652D70E002C06FEF7FEF84
S1130FE0C5012C8794D22C0183012C852F77222EC6
S1130FF016C03801F2E06F0E711CF801A080B180B8
S113100026FF03C0652D70E002C06FEF7FEFC501BE
S11310102C876BD22C012C852068222E830123FC83
S113102019C0832D90E048165906A0F4B70180E258
S113103090E078D23A94F5CFF50127FC859127FE0C
S113104081915F01B70190E06DD231103A94F1E0E3
S11310504F1A51084114510479F7DEC0843611F057
S1131060893631F5F80127FF07C0608171818281DB
S113107093810C5F1F4F08C060817181882777FDC1
S11310808095982F0E5F1F4F2F76B22E97FF09C0C1
S113109090958095709561957F4F8F4F9F4F2068F5
S11310A0B22E2AE030E0A4016FD2A82EA81843C0C3
S11310B0853729F42F7EB22E2AE030E025C0F22FA6
S11310C0F97FBF2E8F36C1F018F4883579F0ADC0A2
S11310D0803719F0883721F0A8C02F2F2061B22E55
S11310E0B4FE0DC08B2D8460B82E09C024FF0AC045
S11310F09F2F9660B92E06C028E030E005C020E19D
S113110030E002C020E132E0F801B7FE07C06081A0
S11311107181828193810C5F1F4F06C06081718150
S113112080E090E00E5F1F4FA4012ED2A82EA818D5
S1131130FB2DFF77BF2EB6FE0BC02B2D2E7FA514E3
S113114050F4B4FE0AC0B2FC08C02B2D2E7E05C09C
S11311507A2C2B2D03C07A2C01C0752C24FF0DC0D2
S1131160FE01EA0DF11D8081803311F4297E09C04E
S113117022FF06C07394739404C0822F867809F00A
S1131180739423FD12C020FF06C05A2C731418F464
S1131190530C5718732C731460F4B70180E290E079
S11311A02C87C0D173942C85F6CF731410F43718A0
S11311B001C0312C24FF11C0B70180E390E02C87DB
S11311C0B1D12C8522FF16C021FF03C088E590E031
S11311D002C088E790E0B7010CC0822F867851F0F6
S11311E021FD02C080E201C08BE227FD8DE2B70140
S11311F090E098D1A51430F4B70180E390E092D147
S11312005A94F8CFAA94F401EA0DF11D8081B70134
S113121090E088D1A110F6CF332009F45DCEB70158
S113122080E290E07FD13A94F7CFF70186819781ED
S113123002C08FEF9FEF2C960FB6F894DEBF0FBE5F
S1131240CDBFDF91CF911F910F91FF90EF90DF9071
S1131250CF90BF90AF909F908F907F906F905F9052
S11312604F903F902F9008950F931F93CF93DF9348
S1131270869F8001879F100D969F100D1124C80131
S11312800DD0EC01009721F0A80160E070E038D1A6
S1131290CE01DF91CF911F910F910895CF93DF93EA
S11312A08230910510F482E090E0E091FD02F0912B
S11312B0FE0220E030E0A0E0B0E0309739F1408158
S11312C0518148175907B8F04817590771F48281BA
S11312D09381109729F013969C938E9312972CC0A8
S11312E09093FE028093FD0227C02115310531F051
S11312F04217530718F0A901DB0101C0EF019A015D
S1131300BD01DF010280F381E02DD7CF2115310526
S1131310F9F0281B390B2430310580F48A819B8134
S11313206115710521F0FB019383828304C09093BE
S1131330FE028093FD02FE01329644C0FE01E20FDC
S1131340F31F8193919322503109398328833AC042
S11313502091FB023091FC02232B41F420910202E4
S1131360309103023093FC022093FB02209100028F
S1131370309101022115310541F42DB73EB740915A
S1131380040250910502241B350BE091FB02F091FD
S1131390FC02E217F307A0F42E1B3F0B28173907B2
S11313A078F0AC014E5F5F4F2417350748F04E0FBD
S11313B05F1F5093FC024093FB028193919302C000
S11313C0E0E0F0E0CF01DF91CF910895CF93DF9378
S11313D0009709F487C0FC01329713821282C091EE
S11313E0FD02D091FE02209781F420813181280FE3
S11313F0391F8091FB029091FC028217930779F5C3
S1131400F093FC02E093FB026DC0DE0120E030E0CB
S1131410AE17BF0750F412964D915C9113979D013E
S11314204115510509F1DA01F3CFB383A283408159
S11314305181840F951F8A179B0771F48D919C919C
S11314401197840F951F02969183808312968D9134
S11314509C911397938382832115310529F4F0938A
S1131460FE02E093FD023EC0D9011396FC93EE9375
S113147012974D915D91A40FB51FEA17FB0779F4FC
S113148080819181840F951F0296D90111969C93B6
S11314908E938281938113969C938E931297E0E0AE
S11314A0F0E08A819B81009719F0FE01EC01F9CFED
S11314B0CE01029628813981820F931F2091FB026D
S11314C03091FC022817390769F4309729F41092F7
S11314D0FE021092FD0202C013821282D093FC021B
S11314E0C093FB02DF91CF910895FC0105906150F8
S11314F070400110D8F7809590958E0F9F1F089526
S1131500DC0101C06D9341505040E0F70895FC01A7
S11315106150704001900110D8F7809590958E0F1E
S11315209F1F08950F931F93CF93DF93182F092FB5
S1131530EB018B8181FD03C08FEF9FEF20C082FF01
S113154010C04E815F812C813D81421753077CF48A
S1131550E881F9819F012F5F3F4F398328831083EE
S113156006C0E885F985812F1995892B29F72E81E5
S11315703F812F5F3F4F3F832E83812F902FDF9139
S1131580CF911F910F910895FA01AA27283051F1A4
S1131590203181F1E8946F936E7F6E5F7F4F8F4FA0
S11315A09F4FAF4FB1E03ED0B4E03CD0670F781FFF
S11315B0891F9A1FA11D680F791F8A1F911DA11DE4
S11315C06A0F711D811D911DA11D20D009F468941D
S11315D03F912AE0269F11243019305D3193DEF6C5
S11315E0CF010895462F4770405D4193B3E00FD07B
S11315F0C9F7F6CF462F4F70405D4A3318F0495D66
S113160031FD4052419302D0A9F7EACFB4E0A69548
S11316109795879577956795BA95C9F7009761056A
S1131620710508959B01AC010A2E069457954795C0
S113163037952795BA95C9F7620F731F841F951FB5
S10B1640A01D0895F894FFCFEA
S11316480000FF022000F80A43414E206973206914
S11316586E204E6F726D616C204D6F64652E000AAA
S113166843414E20697320696E204C6F6F7062612C
S1131678636B204D6F64652E000A43414E206973E5
S113168820696E20436F6E666967204D6F64652E0E
S1131698004E6F206E6577206D6573736167650012
S11316A80A496E74657272757074206F636375721B
S11316B87265642E2E2E00583A2025640A20593A61
S11316C8202564200A00496E697420436F6D706C8C
S11316D8657465000A49522076616C75653A20255F
S11316E8640A000A456E636F6465722076616C75DE
S11316F8653A2025640A00456E636F64657220525A
S1131708657365740044726976696E67206C6566F2
S113171874210053746F70204D6F746F72210053DD
S11117286F6C656E6F696420496E6974000011
S9030000FC
