:1000000071C000008FC000008DC000008BC00000D8
:1000100089C000001AC1000085C0000083C0000034
:1000200081C000007FC000007DC000007BC00000D8
:1000300079C0000077C0000075C0000073C00000E8
:1000400071C000006FC000006DC000006BC00000F8
:1000500069C0000067C0000065C0000063C0000008
:1000600061C000005FC000005DC000005BC0000018
:1000700059C0000057C0000055C0000053C0000028
:1000800051C000004FC000004DC000004BC0000038
:1000900049C0000047C0000045C0000043C0000048
:1000A00041C000003FC000003DC000003BC0000058
:1000B00039C0000037C0000035C0000033C0000068
:1000C00031C000002FC000002DC000002BC0000078
:1000D00029C0000027C0000025C0000023C0000088
:1000E00021C0000011241FBECFEFD1E2DEBFCDBF83
:1000F00000E00CBF12E0A0E0B2E0E4E7F1E100E0D4
:100100000BBF02C007900D92A239B107D9F722E0C8
:10011000A2E9B2E001C01D92AC39B207E1F7E5D027
:100120000C94B8086DCFCF93DF931F92CDB7DEB795
:100130003FD18EE011D1898344E060E080E619D19F
:100140004FEF61E08BE215D140E060EE8FE011D11E
:100150008EE002D189838981807E803441F08038AD
:1001600051F081110BC086E092E0F9D307C08EE117
:1001700092E0F5D303C088E392E0F1D30F90DF91D2
:10018000CF9108959F92AF92BF92CF92DF92EF925C
:10019000FF920F931F93CF93DF93CDB7DEB72C97CA
:1001A0000FB6F894DEBF0FBECDBF7C018CE2D4D079
:1001B0008C878EE0D1D08C7019F181E6CDD0C82E1D
:1001C00082E6CAD0D12CDC2CCC24C82A85E6C4D047
:1001D0008F70982EC1F08E010C5F1F4F0F2EF6E628
:1001E000AF2EF02DA80E0F2EF6E6BF2EF02D8B2D84
:1001F000B3D0F80181938F01B394BA10F8CF03C044
:1002000080E592E0ACD340E061E08CE2B2D0DA82EB
:10021000C9829B828BE0FE013196D70101900D923D
:100220008A95E1F7C7012C960FB6F894DEBF0FBE92
:10023000CDBFDF91CF911F910F91FF90EF90DF9095
:10024000CF90BF90AF909F9008951F920F920FB6DE
:100250000F9211240BB60F922F933F934F935F93FE
:100260006F937F938F939F93AF93BF93EF93FF937E
:10027000CF93DF93CDB7DEB72B97DEBFCDBF8FE532
:1002800092E09F938F935AD3CE0101967BDF9D819D
:100290008C811F929F931F928F9385E792E09F938B
:1002A0008F934CD38C81FFD0A6D00FB6F894DEBFCD
:1002B0000FBECDBF2B960FB6F894DEBF0FBECDBFDD
:1002C000DF91CF91FF91EF91BF91AF919F918F916E
:1002D0007F916F915F914F913F912F910F900BBE46
:1002E0000F900FBE0F901F901895CF93DF93CDB74F
:1002F000DEB766970FB6F894DEBF0FBECDBF87E6B8
:1003000090E0BCD0CAD00FDF58D0EAE6F0E08081A0
:1003100082608083EC9A789484E892E09F938F9334
:100320000DD3FE0131968BE0DF011D928A95E9F72E
:1003300081E08B838AE18C838BE0DE011C96019047
:100340000D928A95E1F787EA91E60197F1F700C0EF
:1003500000000F900F90FFCFCF93C82F2F9883E00E
:1003600076D08C2F74D080E072D02F9A75D0CF9138
:1003700008951F93CF93DF93182FD62FC42F2F9854
:1003800085E065D0812F63D08D2F61D08C2F5FD019
:100390002F9ADF91CF911F9108952F9880EC57D01D
:1003A00083EC99E00197F1F700C000002F9A0895BF
:1003B000279A2F9A3BD0F1CF0895259AE1E8F0E0F3
:1003C000808182608083A0E8B0E08C9180688C930B
:1003D0008C9182608C938081886180838FE39CE91B
:1003E000909387008093860088EB9BE09093890030
:1003F000809388000895803D27E0920738F480EDCF
:1004000097E0909389008093880008958D332FE0C2
:10041000920738F08CE39FE09093890080938800E6
:1004200008959093890080938800089584B1866030
:1004300084B984B1816884B9289A8CB580618CBDF7
:100440008CB581608CBD8CB580648CBD08958EBDEB
:100450000DB407FEFDCF08958EB50895E0ECF0E0F1
:1004600080818823ECF78091C6000895E0ECF0E0ED
:10047000908195FFFDCF8093C60008959093C500AD
:100480008093C400E1ECF0E0808188618083E2EC3D
:10049000F0E080818660808308956EE272E086E3FA
:1004A00092E002C20895682F70E080E090E00BD1E6
:1004B00020E030E04FE753E472D020E030E84DEE2A
:1004C00054E48FD120E030E04AEF54E404D0CFD0A0
:1004D000CB0108955058BB27AA270ED048C139D167
:1004E00030F03ED120F031F49F3F11F41EF42EC1C4
:1004F0000EF4E095E7FB24C1E92F4AD180F3BA1747
:10050000620773078407950718F071F49EF562C1BE
:100510000EF4E0950B2EBA2FA02D0B01B90190011E
:100520000C01CA01A0011124FF27591B99F0593F62
:1005300050F4503E68F11A16F040A22F232F342FAA
:100540004427585FF3CF469537952795A795F040F8
:100550005395C9F77EF41F16BA0B620B730B840B0D
:10056000BAF09150A1F0FF0FBB1F661F771F881FC5
:10057000C2F70EC0BA0F621F731F841F48F487951D
:1005800077956795B795F7959E3F08F0B3CF93950C
:10059000880F08F09927EE0F9795879508950CD04E
:1005A000E6C0DED040F0D5D030F021F45F3F19F046
:1005B000C7C0511110C1CAC0EBD098F39923C9F339
:1005C0005523B1F3951B550BBB27AA276217730759
:1005D000840738F09F5F5F4F220F331F441FAA1F0D
:1005E000A9F333D00E2E3AF0E0E830D091505040CD
:1005F000E695001CCAF729D0FE2F27D0660F771F7B
:10060000881FBB1F261737074807AB07B0E809F05C
:10061000BB0B802DBF01FF2793585F4F2AF09E3FF1
:10062000510568F08DC0D7C05F3FECF3983EDCF316
:10063000869577956795B795F7959F5FC9F7880F6A
:10064000911D9695879597F90895E1E0660F771FBC
:10065000881FBB1F621773078407BA0720F0621B4D
:10066000730B840BBA0BEE1F88F7E095089598D0B2
:1006700088F09F5790F0B92F9927B751A0F0D1F08B
:10068000660F771F881F991F1AF0BA95C9F712C015
:10069000B13081F09FD0B1E008959CC0672F782FD2
:1006A0008827B85F39F0B93FCCF386957795679581
:1006B000B395D9F73EF490958095709561957F4FED
:1006C0008F4F9F4F0895E89409C097FB3EF4909593
:1006D0008095709561957F4F8F4F9F4F9923A9F01B
:1006E000F92F96E9BB279395F695879577956795AA
:1006F000B795F111F8CFFAF4BB0F11F460FF1BC0EE
:100700006F5F7F4F8F4F9F4F16C0882311F096E980
:1007100011C0772321F09EE8872F762F05C066232E
:1007200071F096E8862F70E060E02AF09A95660FE7
:10073000771F881FDAF7880F9695879597F90895A0
:1007400097F99F6780E870E060E008959FEF80EC84
:10075000089500240A941616170618060906089527
:1007600000240A9412161306140605060895092E8D
:100770000394000C11F4882352F0BB0F40F4BF2BFC
:1007800011F460FF04C06F5F7F4F8F4F9F4F08953C
:1007900057FD9058440F551F59F05F3F71F0479532
:1007A000880F97FB991F61F09F3F79F08795089517
:1007B000121613061406551FF2CF4695F1DF08C036
:1007C000161617061806991FF1CF86957105610553
:1007D00008940895E894BB2766277727CB0197F9FB
:1007E00008950BD0C4CFB5DF28F0BADF18F09523F9
:1007F00009F0A6CFABCF1124EECFCADFA0F3959FAF
:10080000D1F3950F50E0551F629FF001729FBB27F7
:10081000F00DB11D639FAA27F00DB11DAA1F649FA3
:100820006627B00DA11D661F829F2227B00DA11D56
:10083000621F739FB00DA11D621F839FA00D611DDC
:10084000221F749F3327A00D611D231F849F600DFD
:10085000211D822F762F6A2F11249F5750408AF036
:10086000E1F088234AF0EE0FFF1FBB1F661F771FC2
:10087000881F91505040A9F79E3F510570F060CFFE
:10088000AACF5F3FECF3983EDCF3869577956795AA
:10089000B795F795E7959F5FC1F7FE2B880F911DE0
:1008A0009695879597F908950F931F93CF93DF93AC
:1008B000EC018B01009731F46115710519F480E0AA
:1008C00090E037C06EE070E081E090E063D2FC0120
:1008D0000097A9F380E883830115110571F0138750
:1008E000028781E883838091920290919302892B01
:1008F00021F4F0939302E09392022097C9F0D187FC
:10090000C087838182608383809194029091950255
:10091000892B71F4F0939502E093940280919602F2
:1009200090919702892B21F4F0939702E09396021D
:10093000CF01DF91CF911F910F910895CF93DF9356
:10094000CDB7DEB7FE01369661917191AF0180910E
:1009500094029091950230D0DF91CF9108950F933A
:100960001F93CF93DF93E0919402F091950223813E
:1009700021FF1BC0EC0100E010E08991609194021E
:1009800070919502DB011896ED91FC9119978823DF
:1009900031F01995892B89F30FEF1FEFEECF8AE025
:1009A0001995892B11F4C80102C08FEF9FEFDF91D9
:1009B000CF911F910F9108952F923F924F925F9286
:1009C0006F927F928F929F92AF92BF92CF92DF925F
:1009D000EF92FF920F931F93CF93DF93CDB7DEB7C4
:1009E0002C970FB6F894DEBF0FBECDBF7C016B0114
:1009F0008A01FC0117821682838181FFB0C1CE017A
:100A000001964C01F7019381F60193FD859193FFC7
:100A100081916F01882309F49EC1853239F493FDD9
:100A2000859193FF81916F01853221F4B70190E0A8
:100A30000FD3E8CF512C312C20E02032A0F48B32A0
:100A400069F030F4803259F0833269F420612CC0AF
:100A50008D3239F0803339F4216026C02260246061
:100A600023C0286021C027FD27C030ED380F3A3061
:100A700078F426FF06C0FAE05F9E300D1124532E55
:100A800013C08AE0389E300D1124332E20620CC032
:100A90008E3221F426FD5FC1206406C08C3611F42D
:100AA000206802C0883641F4F60193FD859193FFDA
:100AB00081916F018111C1CF982F9F7D9554933003
:100AC00028F40C5F1F4FFFE3F9830DC0833631F02C
:100AD000833771F0833509F057C021C0F801808158
:100AE00089830E5F1F4F44244394512C540114C03A
:100AF0003801F2E06F0E711CF801A080B18026FF72
:100B000003C0652D70E002C06FEF7FEFC5012C8739
:100B100094D22C0183012C852F77222E16C0380108
:100B2000F2E06F0E711CF801A080B18026FF03C0B7
:100B3000652D70E002C06FEF7FEFC5012C876BD28F
:100B40002C012C852068222E830123FC19C0832DC3
:100B500090E048165906A0F4B70180E290E078D200
:100B60003A94F5CFF50127FC859127FE81915F012D
:100B7000B70190E06DD231103A94F1E04F1A51086C
:100B80004114510479F7DEC0843611F0893631F50D
:100B9000F80127FF07C060817181828193810C5F1A
:100BA0001F4F08C060817181882777FD8095982F3D
:100BB0000E5F1F4F2F76B22E97FF09C0909580953C
:100BC000709561957F4F8F4F9F4F2068B22E2AE01E
:100BD00030E0A4016FD2A82EA81843C0853729F4AD
:100BE0002F7EB22E2AE030E025C0F22FF97FBF2EF3
:100BF0008F36C1F018F4883579F0ADC0803719F020
:100C0000883721F0A8C02F2F2061B22EB4FE0DC06E
:100C10008B2D8460B82E09C024FF0AC09F2F9660D8
:100C2000B92E06C028E030E005C020E130E002C067
:100C300020E132E0F801B7FE07C060817181828156
:100C400093810C5F1F4F06C06081718180E090E04E
:100C50000E5F1F4FA4012ED2A82EA818FB2DFF77E0
:100C6000BF2EB6FE0BC02B2D2E7FA51450F4B4FE64
:100C70000AC0B2FC08C02B2D2E7E05C07A2C2B2D6D
:100C800003C07A2C01C0752C24FF0DC0FE01EA0DB3
:100C9000F11D8081803311F4297E09C022FF06C036
:100CA0007394739404C0822F867809F0739423FDA3
:100CB00012C020FF06C05A2C731418F4530C571896
:100CC000732C731460F4B70180E290E02C87C0D1DC
:100CD00073942C85F6CF731410F4371801C0312C9F
:100CE00024FF11C0B70180E390E02C87B1D12C859F
:100CF00022FF16C021FF03C088E590E002C088E70C
:100D000090E0B7010CC0822F867851F021FD02C01F
:100D100080E201C08BE227FD8DE2B70190E098D11F
:100D2000A51430F4B70180E390E092D15A94F8CF43
:100D3000AA94F401EA0DF11D8081B70190E088D1F9
:100D4000A110F6CF332009F45DCEB70180E290E028
:100D50007FD13A94F7CFF7018681978102C08FEF58
:100D60009FEF2C960FB6F894DEBF0FBECDBFDF917C
:100D7000CF911F910F91FF90EF90DF90CF90BF9098
:100D8000AF909F908F907F906F905F904F903F902B
:100D90002F9008950F931F93CF93DF93869F800129
:100DA000879F100D969F100D1124C8010DD0EC01E6
:100DB000009721F0A80160E070E038D1CE01DF910A
:100DC000CF911F910F910895CF93DF9382309105BA
:100DD00010F482E090E0E0919A02F0919B0220E012
:100DE00030E0A0E0B0E0309739F140815181481700
:100DF0005907B8F04817590771F482819381109709
:100E000029F013969C938E9312972CC090939B027B
:100E100080939A0227C02115310531F042175307FC
:100E200018F0A901DB0101C0EF019A01BD01DF014A
:100E30000280F381E02DD7CF21153105F9F0281B71
:100E4000390B2430310580F48A819B81611571054D
:100E500021F0FB019383828304C090939B028093D3
:100E60009A02FE01329644C0FE01E20FF31F819305
:100E7000919322503109398328833AC020919802F6
:100E800030919902232B41F4209102023091030208
:100E90003093990220939802209100023091010230
:100EA0002115310541F42DB73EB740910402509110
:100EB0000502241B350BE0919802F0919902E2178C
:100EC000F307A0F42E1B3F0B2817390778F0AC016D
:100ED0004E5F5F4F2417350748F04E0F5F1F50934A
:100EE0009902409398028193919302C0E0E0F0E070
:100EF000CF01DF91CF910895CF93DF93009709F44D
:100F000087C0FC01329713821282C0919A02D0915D
:100F10009B02209781F420813181280F391F809115
:100F20009802909199028217930779F5F0939902AC
:100F3000E09398026DC0DE0120E030E0AE17BF07FD
:100F400050F412964D915C9113979D0141155105F6
:100F500009F1DA01F3CFB383A28340815181840F79
:100F6000951F8A179B0771F48D919C911197840F9F
:100F7000951F02969183808312968D919C91139771
:100F8000938382832115310529F4F0939B02E0932A
:100F90009A023EC0D9011396FC93EE9312974D919D
:100FA0005D91A40FB51FEA17FB0779F48081918149
:100FB000840F951F0296D90111969C938E9382817E
:100FC000938113969C938E931297E0E0F0E08A81D0
:100FD0009B81009719F0FE01EC01F9CFCE0102963A
:100FE00028813981820F931F2091980230919902B4
:100FF0002817390769F4309729F410929B02109250
:101000009A0202C013821282D0939902C09398026E
:10101000DF91CF910895FC0105906150704001105F
:10102000D8F7809590958E0F9F1F0895DC0101C021
:101030006D9341505040E0F70895FC0161507040BD
:1010400001900110D8F7809590958E0F9F1F0895FD
:101050000F931F93CF93DF93182F092FEB018B81F1
:1010600081FD03C08FEF9FEF20C082FF10C04E8133
:101070005F812C813D81421753077CF4E881F9811F
:101080009F012F5F3F4F39832883108306C0E88577
:10109000F985812F1995892B29F72E813F812F5FA3
:1010A0003F4F3F832E83812F902FDF91CF911F9150
:1010B0000F910895FA01AA27283051F1203181F1CA
:1010C000E8946F936E7F6E5F7F4F8F4F9F4FAF4F50
:1010D000B1E03ED0B4E03CD0670F781F891F9A1F63
:1010E000A11D680F791F8A1F911DA11D6A0F711D17
:1010F000811D911DA11D20D009F468943F912AE023
:10110000269F11243019305D3193DEF6CF0108950A
:10111000462F4770405D4193B3E00FD0C9F7F6CF3B
:10112000462F4F70405D4A3318F0495D31FD405203
:10113000419302D0A9F7EACFB4E0A6959795879599
:1011400077956795BA95C9F7009761057105089578
:101150009B01AC010A2E0694579547953795279524
:10116000BA95C9F7620F731F841F951FA01D0895BC
:04117000F894FFCF21
:1011740000009C0220000A43414E20697320696EDE
:10118400204E6F726D616C204D6F64652E000A43B2
:10119400414E20697320696E204C6F6F70626163E9
:1011A4006B204D6F64652E000A43414E2069732005
:1011B400696E20436F6E666967204D6F64652E000B
:1011C4004E6F206E6577206D6573736167650049A6
:1011D4006E74657272757074206F63637572726574
:1011E400642E2E2E00583A2025640A20593A2025D0
:1011F40064200A00496E697420436F6D706C6574D5
:02120400650083
:00000001FF
